S00C0000534541492E73726563F6
S11300000C94B5000C94D2000C94D2000C94D20041
S11300100C94D2000C94D2000C94D2000C94A00145
S11300200C94D2000C94D2000C94D2000C94D20004
S11300300C94D2000C94D2000C9445010C94D20080
S11300400C94D2000C94D2000C942E010C94D20087
S11300500C94D2000C94D2000C94D2000C94D200D4
S11300600C94D2000C94D2006E616E00696E66002E
S113007000407A10F35A00A0724E18090010A5D45B
S1130080E80000E87648170000E40B54020000CAB8
S11300909A3B000000E1F5050000809698000000FE
S11300A040420F000000A08601000000102700005D
S11300B00000E803000000006400000000000A00E3
S11300C0000000000100000000002C76D888DC67E6
S11300D04F0823DFC1DFAE59E1B1B796E5E3E4533E
S11300E0C63AE651997696E8E6C28426EB898C9B5B
S11300F062ED407C6FFCEFBC9C9F40F2BAA56FA5FB
S1130100F490055A2AF75C936B6CF9676DC11BFC7C
S1130110E0E40D47FEF520E6B500D0ED902E030097
S1130120943577050080841E080000204E0A0000E4
S113013000C80C333333330F986E12831141EF8DA3
S11301402114893BE65516CFFEE6DB18D1844B38E3
S11301501BF77C1D901DA4BBE424203284725E2214
S11301608100C9F124ECA1E53D2711241FBECFEF86
S1130170D8E0DEBFCDBF11E0A0E0B1E0EAE0F8E1F5
S113018002C005900D92AA32B107D9F721E0AAE284
S1130190B1E001C01D92A937B207E1F70E9424041F
S11301A00C94030C0C940000CF93C82F8A3019F4DC
S11301B08DE00E94D400E0ECF0E0908195FFFDCF4B
S11301C0C093C60080E090E0CF9108951092C500DE
S11301D087E68093C40088E98093C10087E191E0B9
S11301E090937601809375010895F8940E94830595
S11301F078940895F8948FEF84B915B887B918B82E
S11302008EE08AB980EF8BB914BC15BC16BC84B5DA
S1130210816084BD85B5826085BDEEE6F0E08081B5
S113022082608083A0EBB0E01C92E1EBF0E01082EE
S11302301092B2008CE78093B3008C9182608C930F
S1130240808183608083E0E7F0E080818260808346
S11302500E94E6000E94F500789408951F920F9280
S11302600FB60F9211248F938091C600809358018A
S113027081E08093520110924801109247018F91BE
S11302800F900FBE0F901F9018951F920F920FB6EC
S11302900F9211242F938F939F9380914B019091F0
S11302A04C01813A2FE0920720F081E080935101C4
S11302B009C0019690934C0180934B0180915101A8
S11302C08823D9F080914F0190915001813921E028
S11302D0920770F080914D0190914E010196909398
S11302E04E0180934D011092500110924F0105C0B0
S11302F001969093500180934F0180914901909110
S11303004A01019690934A018093490180914701E3
S11303109091480101969093480180934701809100
S113032044019091450101969093450180934401C5
S11303309F918F912F910F900FBE0F901F90189542
S11303401F920F920FB60F9211248F939F9396B51D
S113035080915A01981710F4289A01C0289896B5EC
S113036080915B01981710F4299A01C0299896B5D9
S113037080915C01981710F42A9A01C02A9896B5C6
S113038080915D01981710F42B9A01C02B9896B5B3
S113039080915E01981710F42C9A01C02C9896B5A0
S11303A080915F01981710F4409A01C0409896B567
S11303B080916001981710F4419A01C0419896B554
S11303C080916101981710F4429A01C0429896B541
S11303D080916201981710F4439A01C0439896B52E
S11303E080916301981710F45A9A01C05A9896B5EF
S11303F080916401981710F45B9A01C05B989F91F7
S11304008F910F900FBE0F901F901895E0E0F1E0D0
S11304102CE031E086E48193E217F307E1F7ECE0A6
S1130420F1E087E191E01192E817F907E1F7089507
S1130430E0E0F1E086E480838183828386E983833C
S11304408483858386839FEF9783908781878287C0
S11304508387ECE0F1E087E191E01192E817F90776
S1130460E1F70895E0E0F1E08CE091E01192E81703
S1130470F907E1F7ECE0F1E026E4208396E99183C3
S1130480928393838FEF8483858386838783808796
S11304909187228708954F9B08C081E0809354017F
S11304A080915601811114C023C0109254011092FE
S11304B0420181E08093430190E2909359011092AC
S11304C0550180935601809353014E9917C01EC065
S11304D080915501882331F083E0809342010E948A
S11304E03202089582E0809342010E941802089526
S11304F081E0809342010E94060208954D9B03C04F
S11305000E94180208950E94060208950E94320271
S11305100895EF92FF920F931F930F2EFAE2EF2E9E
S1130520F1E0FF2EF02D0CE211E02EE231E040E389
S113053051E062E371E084E391E00E94B7058091A9
S113054034019091350120914001309141012817E7
S11305503907D9F440913E0150913F012091300177
S1130560309131014217530781F480913201909107
S1130570330190933F0180933E0110923301109216
S1130580320181E0809351012CC09093410180930A
S11305904001809132019091330190933F01809307
S11305A03E01809130019091310190933D018093FF
S11305B03C0180912E0190912F0190933B018093F7
S11305C03A0180912C0190912D01909339018093EF
S11305D0380180912A0190912B01909337018093E7
S11305E0360180913201909133019C012156304FA4
S11305F02F333F4118F4109257012DC0813A2FE058
S113060092079CF081344FE194075CF0813E9E4256
S113061024F08DEF809357011EC08EEF8093570115
S11306201AC08FEF8093570116C0803640EF9407AD
S113063094F4803C20EE92075CF48032914D24F4D3
S113064083E08093570107C082E08093570103C081
S113065081E0809357011F910F91FF90EF900895CF
S1130660CF92DF92FF920F931F93CF93DF9320914A
S11306705701022E000C330BF901ED5FFE4FAFE57D
S1130680B1E0275F3E4F81918D93E217F307D9F7CD
S113069080914201833071F560915901C62ED12CAD
S11306A0A09157010A2E000CBB0BA15FBE4FEAE5D7
S11306B0F1E0C0E6D1E00FE511E044E050E0FD9048
S11306C0C601042E02C0959587950A94E2F79C0111
S11306D061E0262721702F9D202D11242193817004
S11306E08F9D802D1124899341505109E017F10702
S11306F031F711C080915701082E000C990BFC01B1
S1130700E15FFE4FAAE5B1E08C5E9E4F21912D93EF
S1130710E817F907D9F7DF91CF911F910F91FF9057
S1130720DF90CF90089580914D0190914E010297F2
S1130730E0F480914201833029F4809154018111C5
S11307400E9418021092BC000E94F50010924C0105
S113075010924B011092510180914D0190914E01E4
S1130760019690934E0180934D0180914D0190919B
S11307704E018B3F910520F010924E0110924D01D5
S1130780109233011092320110923F0110923E01F7
S11307901092570108958091440190914501813A46
S11307A09F4008F450C01092460180915401882360
S11307B0A1F080914201813021F482E080934601CE
S11307C01EC0823021F484E08093460118C0833037
S11307D0B1F488E08093460112C081E08093460121
S11307E04E9B0AC04D9B04C085E08093460107C020
S11307F083E08093460103C089E0809346018091A1
S11308005101882329F0809146018061809346013B
S113081080914301882329F080914601806280936E
S11308204601809146011F928F9385E291E09F9348
S11308308F930E948F0B10924501109244010F90E8
S11308400F900F900F9008950E94FA00C1E0D0E23B
S11308508091510181110E9493030E944B02809167
S113086052018823C9F010925201809153018111E1
S113087028C010924301809158018093590186FB4E
S1130880992790F99093550185FB882780F98093E7
S11308905601C093530115C080915301811111C0B9
S11308A0809147019091480181349F4150F0C09359
S11308B04301D093590110925501C0935601C0933E
S11308C053018091490190914A01893E934008F473
S11308D0BFCF0E9489021092530110924A011092D4
S11308E0490110924C0110924B010E9430030E9466
S11308F0CB03AECFAF92BF92DF92EF92FF920F93F2
S11309001F93CF93DF936623B9F1C52FD42FD62E2F
S1130910182F80ED0E940B06812F0E94610685E34B
S11309208A95F1F7000081ED0E940B060D2F1C2F14
S1130930EE24EA94ED0CF12CEFEFEE1AFE0AC0E07F
S1130940D0E0AD2CB12CF1E0AF1AB108CA15DB052B
S113095029F40E949C06F801808304C00E94820648
S1130960F801808321960F5F1F4FCE15DF0571F7C5
S1130970CD2D0E94510601C0C0E08C2FDF91CF9194
S11309801F910F91FF90EF90DF90BF90AF9008956B
S1130990AB0161E00E947A040895EF92FF920F93F5
S11309A01F93CF93DF936623D1F07A01162FC82FBC
S11309B080ED0E940B068C2F0E946106E7016FEF09
S11309C0610F062F10E00F5F1F4F0E0D1F1D899141
S11309D00E946106C017D107D1F70E945106DF912A
S11309E0CF911F910F91FF90EF900895CF93DF93D4
S11309F01F92CDB7DEB76983AE014F5F5F4F61E0F1
S1130A000E94CD040F90DF91CF910895EF92FF9251
S1130A100F931F93CF93DF931F92CDB7DEB7442379
S1130A2089F1F22E142F062FE82E1982BE016F5F72
S1130A307F4F0E94C804882329F1402F50E0411BB6
S1130A4051094F5F5F4F81E090E002C0880F991F0A
S1130A501A95E2F70197042E02C0880F991F0A9491
S1130A60E2F72F2D30E002C0220F331F4A95E2F740
S1130A70682F6095998169238223682B69838E2D61
S1130A800E94F6040F90DF91CF911F910F91FF9078
S1130A90EF900895FF920F931F93CF93DF931F92CC
S1130AA0CDB7DEB7182F062FF42EBE016F5F7F4F30
S1130AB00E94C804FF2059F021E030E0B90102C0CF
S1130AC0660F771F0A95E2F78981682B0BC021E036
S1130AD030E0B90102C0660F771F0A95E2F760950E
S1130AE0998169236983812F0E94F6040F90DF9115
S1130AF0CF911F910F91FF90089540E066E08BE63F
S1130B000E944A0508950E94050625E32A95F1F7F7
S1130B1000008FEF91EE24E0815090402040E1F7F7
S1130B2000C000000E947D058FE39CE90197F1F766
S1130B3000C0000021E043E062E08BE60E9406056D
S1130B4023E043E062E08AE10E94060564E089E173
S1130B500E94F60423E042E064E08BE10E94060573
S1130B6020E042E064E08CE10E94060508958F9243
S1130B709F92AF92BF92CF92DF92EF92FF920F9328
S1130B801F93CF93DF934C015B016A01E90145E6B2
S1130B9051E06EE08BE30E947A04E5E6F1E0208107
S1130BA0818190E0922BD4018D939C932281838147
S1130BB090E0922BD5018D939C932481858190E0C4
S1130BC0922BD6018D939C932085818590E0922B66
S1130BD0998388832285838590E0922BD8018D9315
S1130BE09C932485858590E0922BF70191838083E3
S1130BF0DF91CF911F910F91FF90EF90DF90CF90F5
S1130C00BF90AF909F908F9008951092B9008CE0A0
S1130C108093B800089594EA9093BC004FEF50E09D
S1130C2060E070E0ECEBF0E09081992334F0415007
S1130C30510961097109C0F704C0452B462B472BA4
S1130C4041F19091B900987F983011F0903119F5E5
S1130C508093BB0084E88093BC008FEF90E0A0E019
S1130C60B0E0ECEBF0E0208122232CF00197A10905
S1130C70B109C8F704C0892B8A2B8B2B71F0909192
S1130C80B900987F983159F081E0903449F480E0BC
S1130C90089581E0089581E0089581E0089580E059
S1130CA0089584E98093BC0080E090E0ECEBF0E0F0
S1130CB0208124FF05C00196811521E09207C1F728
S1130CC008958093BB0084E88093BC008FEF90E08C
S1130CD0A0E0B0E0ECEBF0E0208122232CF00197BF
S1130CE0A109B109C8F704C0892B8A2B8B2B41F0C9
S1130CF09091B900987F81E0983219F480E00895CA
S1130D0081E0089584EC8093BC008FEF90E0A0E034
S1130D10B0E0ECEBF0E0208122232CF00197A10954
S1130D20B109C8F704C0892B8A2B8B2B19F0809149
S1130D30BB00089580E0089584E88093BC008FEFA1
S1130D4090E0A0E0B0E0ECEBF0E0208122232CF076
S1130D500197A109B109C8F704C0892B8A2B8B2BF1
S1130D6019F08091BB00089580E00895A3E1B0E0FC
S1130D70ECEBF6E00C94320A6C014B012A01FC0105
S1130D8017821682838181FF43C3AE014F5F5F4F99
S1130D903A01F6019381F40193FD859193FF8191CA
S1130DA04F01882309F430C3853239F493FD8591CA
S1130DB093FF81914F01853239F4B60190E00E948E
S1130DC0570B52012501E5CF10E0F12C20E0203231
S1130DD0A0F48B3269F030F4803259F0833269F434
S1130DE020612CC08D3239F0803339F4216026C063
S1130DF02260246023C0286021C027FD27C030ED75
S1130E00380F3A3078F426FF06C0FAE01F9F300D01
S1130E101124132F13C04AE0F49E300D1124F32E35
S1130E2020620CC08E3221F426FDEEC2206406C07E
S1130E308C3611F4206802C0883641F4F40193FD25
S1130E40859193FF81914F018111C1CF9BEB980F45
S1130E50933018F42061805E06C09BE9980F9330AC
S1130E6008F071C12F7E26FF16E02F73322E8536CF
S1130E7019F42064322E08C0863621F4F22FF0686B
S1130E803F2E02C01111115037FE07C01C3350F41D
S1130E90EE24E394E10E27E00BC0183038F027E08D
S1130EA017E005C027E04CE3E42E02C0212FE12C1B
S1130EB0520144E0A40EB11CF2016081718182816F
S1130EC093810E2DA3010E94690A2C01098100FF60
S1130ED002C003FF07C031FC08C032FE09C030E283
S1130EE0232E07C02DE2222E04C09BE2292E01C02E
S1130EF0212C802F8C7019F0211068C2A8C237FEF3
S1130F000FC0E40C04FF04C08A81813309F4EA941D
S1130F101E1474F5F8E0FE1578F588E0E82E2CC070
S1130F2036FC2AC0812F90E0841595059CF02CEFA7
S1130F3042162FEF520674F0432D4068342E0AC037
S1130F40E2E0F0E0EC0FFD1FE10FF11D8081803342
S1130F5019F411501111F4CF37FE0EC0EE24E394AE
S1130F60E10E812F90E0481659062CF4141904C0A0
S1130F70EE24E39401C010E037FE06C014141504F7
S1130F8034F4C201019605C085E090E002C081E01E
S1130F9090E021100196112331F0212F30E02F5FD2
S1130FA03F4F820F931F2F2D30E08217930714F4C5
S1130FB0F81A01C0F12C832D897049F4FF2039F00F
S1130FC0B60180E290E00E94570BFA94F7CF2220FA
S1130FD029F0B601822D90E00E94570B33FC09C022
S1130FE0FF2039F0B60180E390E00E94570BFA9499
S1130FF0F7CF37FE5AC0942D852D57FE02C090E0DE
S113100080E0292E382E20E030E0A2014E1951094B
S11310105D874C87A201421953095F874E87612F70
S113102070E044275527461B570B598B488B5FEFBD
S11310302516350649F4B6018EE290E02A8B3B8BE7
S11310400E94570B3B892A89421453046CF04C8547
S11310505D854215530544F4EE85FF85E20FF31FC9
S1131060E60DF71D818101C080E351E0251A3108A6
S11310702F5F3F4F48895989241635064CF0B60135
S113108090E02A8B3B8B0E94570B2A893B89CFCF58
S11310902414350439F49A81963318F4953311F4F1
S11310A004FF81E3B60190E04BC08A81813309F0EB
S11310B00F7EB60190E00E94570B111105C034FC5D
S11310C018C085E690E017C0B6018EE290E00E9459
S11310D0570B82E0EE24E394E80EF301E80FF11DD0
S11310E08081B60190E00E94570B11508E2D91F72C
S11310F0E6CF85E490E0B6010E94570B57FC05C08B
S11311004114510439F404FF05C051944194510829
S11311108DE201C08BE2B60190E00E94570B80E3A0
S11311209AE0491651042CF08F5F5AE0451A510891
S1131130F7CFB60190E00E94570BB601C201C096EA
S11311400E94570B57C1833631F0833779F08335CA
S113115009F058C021C05201E2E0AE0EB11CF20108
S11311608081898301E010E0230114C05201F2E080
S1131170AF0EB11CF2014080518026FF03C0612FE5
S113118070E002C06FEF7FEFC2012A8B0E944C0B0C
S11311908C012A892F7715C05201F2E0AF0EB11CE1
S11311A0F2014080518026FF03C0612F70E002C02D
S11311B06FEF7FEFC2012A8B0E94410B8C012A89B9
S11311C02068322E23FD1AC08F2D90E008171907CE
S11311D0A8F4B60180E290E00E94570BFA94F4CF91
S11311E0F20137FC859137FE81912F01B60190E021
S11311F00E94570BF110FA940150110901151105C1
S113120079F7F8C0843611F0893659F5520127FF71
S113121009C0F4E0AF0EB11CF201608171818281DA
S113122093810AC0F2E0AF0EB11CF20160817181BA
S1131230072E000C880B990B2F76322E97FF09C0CE
S113124090958095709561957F4F8F4F9F4F206843
S1131250322E2AE030E0A3010E94A50BE82EE61806
S11312603FC0022F853721F40F7E2AE030E01DC0F5
S1131270097F8F3691F018F4883559F0C5C080374E
S113128019F0883711F0C0C0006104FF09C0046080
S113129007C024FF08C0066006C028E030E005C08F
S11312A020E130E002C020E132E0520107FF09C032
S11312B0F4E0AF0EB11CF2016081718182819381EF
S11312C008C0F2E0AF0EB11CF2016081718180E0D0
S11312D090E0A3010E94A50BE82EE6180F77302EAC
S11312E036FE0BC0332D3E7FE11650F434FE0AC0A7
S11312F032FC08C0332D3E7E05C00E2D332D03C0B5
S11313000E2D01C0012F34FF0CC0FE01EE0DF11DA6
S11313108081803311F4397E08C032FF05C00E5F2E
S113132004C0832F867809F00F5F33FD13C030FFAC
S113133006C01E2D0F1518F41F0D101B0F2D0F15B1
S113134068F4B60180E290E03B8B0E94570B0F5F7C
S11313503B89F5CF0F1510F4F01A01C0F12C34FFBE
S113136012C0B60180E390E03B8B0E94570B3B898F
S113137032FF17C031FD03C088E790E002C088E562
S113138090E0B6010CC0832F867859F031FF02C07B
S11313908BE201C080E237FD8DE2B60190E00E944D
S11313A0570BE11638F4B60180E390E00E94570B26
S11313B01150F7CFEA94F301EE0DF11D8081B601CF
S11313C090E00E94570BE110F5CF14C0F4E0FF1534
S11313D058F584E0F81A33FE1EC0211026C003FF1E
S11313E02AC008E610E0F32DF0713F2EF801849135
S11313F0811124C0FF2009F4E5CCB60180E290E01D
S11314000E94570BFA94F6CFF6018681978126C085
S11314108FEF9FEF23C0B60180E290E00E94570B4C
S1131420FA94F110F8CFD9CFF12CB601822D90E0C7
S11314300E94570BD4CF0CE610E0D5CF3110805268
S1131440B60190E00E94570B0F5F1F4FCFCF23E0F0
S11314502F1510F483E0BECFF12CC1CF6396E2E1E7
S11314600C944E0A2F923F924F925F926F927F920A
S11314708F929F92AF92BF92CF92DF92EF92FF92A0
S11314800F931F93CF93DF93CDB7DEB7CA1BDB0B4C
S11314900FB6F894DEBF0FBECDBF09942A883988F1
S11314A048885F846E847D848C849B84AA84B984F8
S11314B0C884DF80EE80FD800C811B81AA81B98104
S11314C0CE0FD11D0FB6F894DEBF0FBECDBFED0118
S11314D00895283008F027E03327DA01990F311DE9
S11314E087FD916000966105710539F432602E5FC5
S11314F03D9330E32A95E1F708959F3F30F080381B
S11315007105610509F03C5F3C5F3D93913008F043
S11315108068911DDF93CF931F930F93FF92EF92F7
S1131520192F987F9695E92F96959695E90FFF27A1
S1131530E653FF4F99273327EE24FF24A701E70141
S113154005900894079428F4360FE71EF81E491FE7
S1131550511D660F771F881F991F0694A1F70590E8
S1131560079428F4E70EF81E491F561FC11D770F74
S1131570881F991F661F0694A1F70590079428F405
S1131580F80E491F561FC71FD11D880F991F661FCC
S1131590771F0694A1F70590079420F4490F561F6E
S11315A0C71FD81F990F661F771F881F0694A9F7B6
S11315B084911095177041F0D695C7955795479526
S11315C0F794E7941A95C1F7E0E7F0E06894159072
S11315D0159135916591959105907FE27395E11888
S11315E0F10A430B560BC90BD009C0F7E10CF11EED
S11315F0431F561FC91FD01D7EF4703311F48A9502
S1131600E6CFE894015030F0080F0AF400270217DF
S113161008F4202F2395022F7A3328F079E37D9361
S11316202A95E9F710C07D932A9589F60694979533
S11316306795379517951794E118F10A430B560BE4
S1131640C90BD00998F023957E9173957A3308F0ED
S113165070E37C932013B8F77E9170617D9330F032
S1131660839571E37D9370E32A95E1F71124EF905C
S1131670FF900F911F91CF91DF91992787FD90954E
S11316800895FC010590615070400110D8F78095D1
S113169090958E0F9F1F0895FC016150704001903A
S11316A00110D8F7809590958E0F9F1F08950F9382
S11316B01F93CF93DF93FB01238121FD03C08FEFA1
S11316C09FEF28C022FF16C04681578124813581AF
S11316D04217530744F4A081B1819D012F5F3F4F0E
S11316E0318320838C93268137812F5F3F4F37834B
S11316F0268310C0EB01092F182F0084F185E02DFB
S11317000995892BE1F68E819F8101969F838E83B3
S1131710812F902FDF91CF911F910F910895A0E019
S1131720B0E0E5E9FBE00C94420AAE014B5F5F4F89
S1131730FA0161917191AF018091750190917601E7
S11317400E94B606E2E00C945E0AFA01AA27283049
S113175051F1203181F1E8946F936E7F6E5F7F4F7A
S11317608F4F9F4FAF4FB1E03ED0B4E03CD0670FF6
S1131770781F891F9A1FA11D680F791F8A1F911D49
S1131780A11D6A0F711D811D911DA11D20D009F499
S113179068943F912AE0269F11243019305D3193DB
S11317A0DEF6CF010895462F4770405D4193B3E0C4
S11317B00FD0C9F7F6CF462F4F70405D4A3318F06B
S11317C0495D31FD4052419302D0A9F7EACFB4E01C
S11317D0A6959795879577956795BA95C9F70097D4
S11317E06105710508959B01AC010A2E0694579575
S11317F0479537952795BA95C9F7620F731F841FCC
S10D1800951FA01D0895F894FFCF72
S113180A000000004BFFFF4B000000000000000036
S113181A4BFF4B000000000000000200000000D44F
S10D182A000000000025630A00001E
S9030000FC
